:100000000C9446000C9465000C9465000C946500FB
:100010000C9465000C9465000C9465000C946500CC
:100020000C9465000C9465000C9465000C946500BC
:100030000C9465000C9410010C9465000C94650000
:100040000C9465000C9465000C9465000C9465009C
:100050000C9465000C9465000C9465000C9465008C
:100060000C9465000C9465000C9465000C9465007C
:100070000C9465000C9465000C9465000C9465006C
:100080000C9465000C9465000C94650011241FBE4F
:10009000CFEFD0E4DEBFCDBF11E0A0E0B1E0ECE1F6
:1000A000F6E000E00BBF02C007900D92A631B10749
:1000B000D9F711E0A6E1B1E001C01D92A432B10769
:1000C000E1F70E94E8020C940C030C94000040E05D
:1000D00050E00CC000002F5F3F4F02C020E030E036
:1000E000273063E03607B4F34F5F5F4F4817590777
:1000F000ACF308955E9888B95F9A00005F9882E03B
:1001000090E00E946700089581E00E947A000895BF
:10011000813120F481580E947A00089581550E940F
:100120007A00089584E690E00E94670088E30E94C8
:100130007A0086E00E947A008FE00E947A0081E0D7
:100140000E947A008AE090E00E94670008955E9A1B
:1001500088B95F9A00005F9881E090E00E94670094
:100160000895EF92FF920F931F93CF93DF93182F71
:10017000EB010E9484000EC001E0010F812F0E945C
:1001800088007E018FEFE81AF80A88810E94A70094
:10019000102FE70188818111EFCFDF91CF911F915F
:1001A0000F91FF90EF900895CF93C82F8A3019F4E4
:1001B0008DE00E94D4009091C00095FFFCCFC093C9
:1001C000C60080E090E0CF9108958BE0809381009D
:1001D0008DE790E0909389008093880082E080937F
:1001E0006F00109285001092840080910001909120
:1001F0000101A0910201B091030180931601909337
:100200001701A0931801B09319018FB780688FBFB1
:10021000089510928100089581E080931E01089551
:100220001F920F920FB60F9211240BB60F922F93BD
:100230003F934F935F936F937F938F939F93AF936E
:10024000BF93EF93FF938091160190911701A091B6
:100250001801B09119010197A109B1098093160104
:1002600090931701A0931801B0931901892B8A2B41
:100270008B2B91F40E940C0180910001909101015F
:10028000A0910201B0910301809316019093170190
:10029000A0931801B0931901FF91EF91BF91AF9115
:1002A0009F918F917F916F915F914F913F912F918E
:1002B0000F900BBE0F900FBE0F901F90189560937C
:1002C00000017093010180930201909303016093F8
:1002D00016017093170180931801909319010895E6
:1002E00080B1809581708093230190B19095927038
:1002F0009093220120911F0130912001223031057D
:1003000009F45CC038F42115310579F0213031054C
:1003100091F10EC12430310509F473C008F471C0A5
:100320002530310509F4ADC003C1882349F091118E
:1003300007C081E090E09093200180931F01F8C0F6
:10034000811109C0992339F082E090E09093200157
:1003500080931F01EDC0882349F0992339F083E091
:1003600090E09093200180931F01E2C01092200141
:1003700010921F01DDC0882389F091110FC084E025
:1003800090E09093200180931F0110921A01109227
:100390001B0110921C0110921D01CAC0882349F054
:1003A000992339F083E090E09093200180931F011E
:1003B000BFC01092200110921F01BAC0811111C05C
:1003C000992379F085E090E09093200180931F01BC
:1003D00010921A0110921B0110921C0110921D0123
:1003E000A7C0882349F0992339F083E090E09093E7
:1003F000200180931F019CC01092200110921F01C8
:1004000097C0882379F091110DC040911A01509145
:100410001B0160911C0170911D014436510561055D
:1004200071057CF18823C1F0911116C040911A0129
:1004300050911B0160911C0170911D0144365105C2
:10044000610571054CF010921A0110921B01109277
:100450001C0110921D0115C0882359F0992349F001
:1004600010921A0110921B0110921C0110921D0192
:1004700008C010921A0110921B0110921C011092D8
:100480001D01811116C09923A1F040911A015091CC
:100490001B0160911C0170911D01443651056105DD
:1004A00071053CF485E090E09093200180931F015A
:1004B0003FC081111EC09923E1F040911A01509173
:1004C0001B0160911C0170911D01443651056105AD
:1004D00071057CF082E090E09093200180931F01F1
:1004E00010921A0110921B0110921C0110921D0112
:1004F0001FC0882389F0992379F083E090E09093DE
:10050000200180931F0110921A0110921B0110927A
:100510001C0110921D010CC01092200110921F01AD
:1005200010921A0110921B0110921C0110921D01D1
:1005300080911F01909120018330910509F445C0FD
:1005400030F481309105E9F00297B9F108958430D3
:10055000910519F00597E9F0089580911A0190919D
:100560001B01A0911C01B0911D010196A11DB11D9F
:1005700080931A0190931B01A0931C01B0931D015D
:10058000089580912101893010F58F5F80932101BA
:10059000089580911A0190911B01A0911C01B091C6
:1005A0001D010196A11DB11D80931A0190931B019D
:1005B000A0931C01B0931D0108958091210188230F
:1005C00031F0815080932101089510922101089506
:1005D00011B88FEF82B987B918B884B91BB81092D7
:1005E000200110921F01109221016AE070E080E06A
:1005F00090E00E945F010E94E5000E9470018091DE
:10060000210190E0C0960E94A70080911E018823DE
:0C061000E1F310921E01F1CFF894FFCF2F
:10061C00010000000000000200000000D4000000F7
:06062C0000006400000064
:00000001FF
